{"abi":[{"type":"function","name":"mul","inputs":[{"name":"a","type":"uint256","internalType":"uint256"},{"name":"b","type":"uint256","internalType":"uint256"},{"name":"c","type":"uint256","internalType":"uint256"}],"outputs":[{"name":"","type":"uint256","internalType":"uint256"}],"stateMutability":"pure"}],"bytecode":{"object":"0x6080604052348015600f57600080fd5b5060f48061001e6000396000f3fe6080604052348015600f57600080fd5b506004361060285760003560e01c8063e91cac2d14602d575b600080fd5b603c60383660046069565b604e565b60405190815260200160405180910390f35b600081605984866094565b606191906094565b949350505050565b600080600060608486031215607d57600080fd5b505081359360208301359350604090920135919050565b808202811582820484141760b857634e487b7160e01b600052601160045260246000fd5b9291505056fea26469706673582212209e77609fc3759285ed3d77a8cba28bc366985bf87e139b008e3e715676cee16864736f6c634300081b0033","linkReferences":{}},"methodIdentifiers":{"mul(uint256,uint256,uint256)":"e91cac2d"},"id":23}