{"abi":[{"type":"function","name":"count","inputs":[],"outputs":[{"name":"","type":"uint256","internalType":"uint256"}],"stateMutability":"view"},{"type":"function","name":"decrement","inputs":[],"outputs":[],"stateMutability":"nonpayable"},{"type":"function","name":"increment","inputs":[],"outputs":[],"stateMutability":"nonpayable"}],"bytecode":{"object":"0x6080604052348015600f57600080fd5b506101008061001f6000396000f3fe6080604052348015600f57600080fd5b5060043610603c5760003560e01c806306661abd1460415780632baeceb714605b578063d09de08a146063575b600080fd5b604960005481565b60405190815260200160405180910390f35b60616069565b005b6061607d565b60008054908060768360a0565b9190505550565b60008054908060768360b4565b634e487b7160e01b600052601160045260246000fd5b60008160ac5760ac608a565b506000190190565b60006001820160c35760c3608a565b506001019056fea2646970667358221220279c0015f8bcb67aab3f015946286b126a796d31ccc2546edb38893868b386f864736f6c634300081b0033","linkReferences":{}},"methodIdentifiers":{"count()":"06661abd","decrement()":"2baeceb7","increment()":"d09de08a"},"id":25}